S01600006D34486F75736553746174696F6E2E7372656387
S11300000C94FB010C948B2A0C94FF2A0C9423026D
S11300100C9423020C9423020C9423020C942302C8
S11300200C9423020C9423020C9423020C942302B8
S11300300C9423020C94022C0C9423020C9423029F
S11300400C94EC320C9423020C948C340C94DA341B
S11300500C9423020C9423020C9423020C94230288
S11300600C943F030C942302500454045404540489
S113007054045404540454046103540454045404B0
S113008054045404540454046103540454045404A0
S11300905404540454045404690354045404540488
S11300A054045404540454048F0354045404540452
S11300B05404540454045404690354045404540468
S11300C0540454045404540495035404540454042C
S11300D054045404540454049B0354045404540416
S11300E05404540454045404AD03540454045404F4
S11300F05404540454045404D703540454045404BA
S11301005404540454045404A103540454045404DF
S11301105404540454045404BB03540454045404B5
S11301205404540454045404DA0354045404540486
S11301305404540454045404DA0354045404540476
S11301405404540454045404DA0354045404540466
S11301505404540454045404DA0354045404540456
S11301605404540454045404E3035404540454043D
S113017054045404540454041704540454045404F8
S11301805404540454045404E3035404540454041D
S113019054045404540454041704540454045404D8
S11301A05404540454045404FB03540454045404E5
S11301B054045404540454041B04540454045404B4
S11301C054045404540454041B04540454045404A4
S11301D0540454045404540430045404540454047F
S11301E054045404540454044A0454045404540455
S11301F054045404540454044A041F1C1F1E1F1E98
S11302001F1F1E1F1E1F485454502F312E31200013
S1130210204F4B0D0A0048544D2A746578742F689A
S1130220746D6C7C5458542A746578742F706C61A6
S1130230696E7C4353532A746578742F6373737C9B
S1130240584D4C2A746578742F786D6C7C4A532A07
S1130250746578742F6A6176617363726970747CF3
S11302604749462A696D6167652F6769667C4A500C
S1130270472A696D6167652F6A7065677C504E47D0
S11302802A696D6167652F706E677C49434F2A69DF
S11302906D6167652F766E642E6D6963726F736F1F
S11302A066742E69636F6E7C4D50332A6175646980
S11302B06F2F6D7065677C00436F6E74656E742D6F
S11302C0547970653A20007C3C3E5E2B3D3F2F5BA9
S11302D05D3B2C2A225C006761735F6D65746572F7
S11302E02C20000A006761735F706F7765722C20A1
S11302F0000A00656C655F6D657465722C20000AE8
S113030000656C655F706F7765722C20000A00745D
S1130310656D702C20000A0068756D2C20000A00A1
S11303206761736D657465722C2000656C656D651D
S11303307465722C20004761732C2000456C652C79
S113034020006572726F72206F70656E696E67202F
S11303504D0054656D702C200048756D2C2000658F
S113036072726F722077726974696E6720450057E4
S11303706562736572766572204661696C656400B6
S113038000000000240027002A00000000002500CF
S113039028002B000000000023002600290004048C
S11303A00404040404040202020202020303030319
S11303B003030102040810204080010204081020F5
S11303C001020408102000000007000201000003DD
S11303D004060000000000000000620B820B970E70
S11303E00A101C12B3139F150B1A742A9130C530CE
S11303F0A7324636A83611241FBECFEFD8E0DEBFA1
S1130400CDBF12E0A0E0B1E0ECEAFCE702C0059049
S11304100D92A835B107D9F717E0A8E5B2E001C0FD
S11304201D92A53EB107E1F713E0C6EFD3E004C087
S11304302297FE010E943F3ACA3DD107C9F70E94A4
S113044010370C94543E0C9400001092610281E029
S113045080935F0210925E0282E161E00E94373471
S113046083E161E00E943734E9EBF0E080818E7F24
S1130470808380818D7F808388E48093B80085E4C5
S11304808093BC000895880F8093BA000895413288
S113049008F048C0909161029923E1F791E09093AC
S11304A0610220935F022FEF2093580210925D02A5
S11304B0242F215020935C0290936002909160025B
S11304C0880F892B8093600280915E02813051F401
S11304D010925E02809160028093BB0085EC809351
S11304E0BC0003C085EE8093BC0080916102813022
S11304F0E1F380915D02841710F440915D0244237E
S113050091F0E2E6F2E0A62FB72F9F012F5F3F4F55
S1130510842F8150280F311D81918D93E217F307A9
S1130520D9F701C040E0842F08950F93CF93DF9350
S1130530413208F054C0909161029923E1F792E0AE
S11305409093610200935F029FEF90935802109280
S11305505D0240935C02442389F0A62FB72FE2E6A4
S1130560F2E0BF016F5F7F4F4150EB01C40FD11D1B
S1130570AE019D919193E417F507D9F710926002AB
S113058090916002880F892B8093600280915E02B3
S1130590813051F410925E02809160028093BB001E
S11305A085EC8093BC0003C085EE8093BC002223BD
S11305B041F080916102823021F4809161028230A5
S11305C0E1F3809158028F3F61F0809158028032AC
S11305D051F080915802803341F483E007C081E0F8
S11305E005C080E003C082E001C084E0DF91CF91C8
S11305F00F9108956132C0F4209161022430B1F466
S113060060935A026623A1F0A82FB92FE2E8F2E022
S1130610CF0101966150860F911D2D912193E8170A
S1130620F907D9F780E0089581E0089582E00895FC
S113063080E008959093A3028093A202089590937A
S1130640A5028093A4020895882321F085EC809369
S1130650BC00089585E88093BC00089585ED8093DF
S1130660BC00ECEBF0E0808184FDFDCF10926102D0
S1130670089585EC8093BC001092610208951F9246
S11306800F920FB60F9211242F933F934F935F93C2
S11306906F937F938F939F93AF93BF93EF93FF9346
S11306A0E091B900F0E0E87FF070E93CF10508F072
S11306B0FBC0EC5CFF4FEE0FFF1F0590F491E02DA3
S11306C00994809160028093BB0081E00E9424031E
S11306D0EBC090915D0280915C02981780F4809148
S11306E05D02E2E6F2E0E80FF11D90819093BB0019
S11306F08F5F80935D0281E00E942403D5C08091C6
S11307005F02882319F00E942E03CEC081E08093FB
S11307105E0284EA8093BC0010926102C5C080E24C
S1130720809358020E942E03BFC080E38093580236
S11307300E942E03B9C088E3809358020E943903B3
S1130740B3C080915D029091BB00E2E6F2E0E80F55
S1130750F11D90838F5F80935D0290915D02809183
S11307605C02981720F481E00E9424039DC080E07D
S11307700E94240399C080915D029091BB00E2E63F
S1130780F2E0E80FF11D90838F5F80935D0280910A
S11307905F02882319F00E942E0386C081E08093B3
S11307A05E0284EA8093BC00109261027DC00E94C4
S11307B02E037AC083E0809361021092590281E093
S11307C00E94240371C080915902803280F4809188
S11307D059029091BB00E6EAF2E0E80FF11D908324
S11307E08F5F8093590281E00E9424035DC080E002
S11307F00E94240359C080915902803238F48091B8
S11308005902E6EAF2E0E80FF11D10820E942E037D
S113081060915902E091A202F091A30286EA92E06B
S113082070E00995109259020E9439033DC080E09E
S11308300E94240339C084E08093610210925B0219
S113084010925A02E091A402F091A50209958091B8
S11308505A02882329F481E080935A02109282027A
S113086080915B02E2E8F2E0E80FF11D9081909341
S1130870BB008F5F80935B0290915B0280915A0270
S1130880981720F481E00E9424030EC080E00E94A7
S113089024030AC081E00E9424031092610204C070
S11308A0109258020E942E03FF91EF91BF91AF91D5
S11308B09F918F917F916F915F914F913F912F9174
S11308C00F900FBE0F901F901895EF92FF920F9309
S11308D01F93CF93DF937C018B01C0E0D0E0D7015D
S11308E01296ED91FC911397EC0FFD1F6491662312
S11308F029F0C8010E946C372196F1CFDF91CF9186
S11309001F910F91FF90EF900895FC0180ED91E00D
S113091091838083738362830895DC0187E0A03D23
S1130920B80710F0A05DB74050E080E090E007C049
S1130930FC01E650FE4FE4914E0F511D0196282F05
S11309402F5F2617A8F3633038F0CD0183709070C1
S1130950009711F44F5F5F4F2DE631E0A29FC00175
S1130960A39F900DB29F900D112401971396B695F5
S1130970A795B695A7958A0F9B1F840F951F089579
S11309800F931F93CF93DF93EC01888190E06981EB
S11309904A810E948D04BC0180E090E028E130E0AF
S11309A040E050E00E94D5392B81620F711D811DFA
S11309B0911D2CE330E040E050E00E94D5392C81B9
S11309C0620F711D811D911D2CE330E040E050E069
S11309D00E94D5398B019C018D81080F111D211DA9
S11309E0311D00581C4B2249374CB801C901DF9115
S11309F0CF911F910F91089581E00895FF920F9375
S1130A001F93CF93DF93CDB7DEB72B970FB6F89430
S1130A10DEBF0FBECDBF0FE016E0C80168E670E090
S1130A200E945A2AE0910F06F09110060190F0817D
S1130A30E02DC8016091C6020995C8010E94702A80
S1130A40C80168E670E047E050E00E944C2AC80103
S1130A500E94B2298F77782F72957F709AEFF92EC2
S1130A607F9D702D1124780FC8017B870E94B229C5
S1130A70682F62956F706F9D602D1124680FC801F7
S1130A806A870E94B229582F52955F705F9D502D3E
S1130A901124580FC80159870E94B229C8010E9425
S1130AA0B229482F42954F704F9D402D1124480F75
S1130AB0C80148870E94B229382F32953F703F9D64
S1130AC0302D1124380FC8013F830E94B229282FEA
S1130AD022952F702F9D202D1124280F3F814885AA
S1130AE059856A857B8580E090E02B960FB6F89453
S1130AF0DEBF0FBECDBFDF91CF911F910F91FF904D
S1130B00089541960E943A1191E0811190E0892F55
S1130B1008956115710599F0DB010D900020E9F746
S1130B20AD0141505040461B570BDC015196ED91ED
S1130B30FC9152970280F381E02D41960995089526
S1130B4041960E94FC10089541960E941910089540
S1130B500F931F93CF93DF93EB018A01E881F9810F
S1130B600480F581E02DCB010995009759F0E881C7
S1130B70F9810680F781E02DCE010995F801808383
S1130B8081E001C080E0DF91CF911F910F91089522
S1130B90EF92FF920F931F93CF93DF938C01EA019F
S1130BA0DC0113961C921E92129786ED91E0119629
S1130BB09C938E9315967C936E931497C801089614
S1130BC060E570E00E948112F80117861686108A8B
S1130BD0C80141966FEF0E941A112097A1F17E017E
S1130BE0FE01C0E0D0E001C0EC0121913191CE01C1
S1130BF0019621153105C1F7880F991F880F991F98
S1130C000E94433A9C01D80117969C938E931697A1
S1130C100097C9F0FC0180E090E00AC0D7014D9133
S1130C205D917D0151834083138212820196349633
S1130C308C179D079CF3CC0FDD1FCC0FDD1FC20F5B
S1130C40D31F19821882DF91CF911F910F91FF90CA
S1130C50EF90089508960E943D120895EF92FF9236
S1130C600F931F93CF93DF937B01FC01C681D78140
S1130C70209779F413C0F70180819181B8010E9413
S1130C80A93D2496009729F4F7011183008381E09C
S1130C9006C0088119810115110569F780E0DF910B
S1130CA0CF911F910F91FF90EF9008950F931F9391
S1130CB0CF93DF9300D0CDB7DEB7DC011696ED916C
S1130CC0FC9117973097E1F420C0349668177907A0
S1130CD0B9F4DA010D900020E9F7CD01841B950BDE
S1130CE049835A830E94433AF8019383828349815A
S1130CF05A81009751F0BA010E94B23D81E006C0CA
S1130D008F0180819181009701F780E00F900F900F
S1130D10DF91CF911F910F9108956F927F928F92DF
S1130D209F92AF92BF92CF92DF92EF92FF920F9376
S1130D301F93CF93DF9300D00F92CDB7DEB75C0142
S1130D40DC0116968D919C911797009799F41FC01A
S1130D5082819381009759F00E94D93AD501169661
S1130D60ED91FC911797E00FF11F138212820C5F33
S1130D701F4F02C000E010E0D5011696ED91FC91E2
S1130D801797E00FF11F80819181009709F711E017
S1130D9041E1842E912C8A0C9B1C50ED652E52E06F
S1130DA0752ED501ED91FC910680F781E02DC501EA
S1130DB00995882309F09DC0D501ED91FC9100842B
S1130DC0F185E02DC501B401AE014F5F5F4F099578
S1130DD0882339F3133009F463C0143030F411302C
S1130DE059F0123009F080C01DC0143009F448C015
S1130DF0153009F079C073C009810D3091F20A30C1
S1130E0009F479C0802F90E00E945B3D009719F4AB
S1130E100D3209F06EC00093D00231E0E32EF12CC4
S1130E2012E0BFCF67010894C11CD11CB0EACB16F5
S1130E30D10408F05EC009810A3399F4F701E05344
S1130E40FD4F10827B826A82C501BE016E5F7F4FB7
S1130E500E942E06EE24FF24882309F45FC014E0C8
S1130E60A0CF802F90E00E945B3D009719F40D32D3
S1130E7009F03FC0F701E053FD4F0083760191CFA5
S1130E80C7010196803A9105A0F52981203209F421
S1130E9088CFF701E053FD4F20837C0113E081CF1D
S1130EA0C7010196803A910520F529812A3071F411
S1130EB0F701E053FD4F10826A817B81C50140ED4B
S1130EC052E00E945606882359F513C02D3009F4C8
S1130ED068CFF701E053FD4F20837C0162CF898105
S1130EE08A3009F05ECF1CC0163029F0112309F0B6
S1130EF058CF80E001C081E00F900F900F90DF91F8
S1130F00CF911F910F91FF90EF90DF90CF90BF9002
S1130F10AF909F908F907F906F90089515E041CF90
S1130F2011E03FCF0F931F93CF93DF938C01EB011D
S1130F3066E072E00E944937C801BE014AE050E011
S1130F400E948938C80160E172E00E944937C83CB8
S1130F50D10519F0C8010E947437DF91CF911F9118
S1130F600F9108950F931F93CF93DF93EB018C019F
S1130F700F5E1F4FE091C802F091C9020190F08109
S1130F80E02D88EC92E0B801099502C00E946C370C
S1130F90E091CE02F091CF02EC0FFD1F64912196F7
S1130FA0C8016C3799F70E947437DF91CF911F9174
S1130FB00F9108950F931F93CF93DF938B01EC014F
S1130FC06196E091C802F091C9020190F081E02D90
S1130FD088EC92E0BE010995CE01B8010E94BE38AA
S1130FE0DF91CF911F910F910895FC01868597851C
S1130FF008958F929F92AF92BF92CF92DF92EF9219
S1131000FF920F931F93CF93DF9300D00F92CDB72E
S1131010DEB77C01009709F47AC0DC010D90002052
S1131020E9F7CD018E199F090E94433A4C010097BC
S113103009F46FC05C0143C086010E191F09C50184
S1131040B701A8010E94953DA00EB11EF6010190C2
S11310500020E9F73197EC19FD09E330F10508F4B4
S11310603FC0F6018181898382818A831B82CE01FC
S1131070019660E070E040E150E00E943D3CDC01FC
S1131080CB01F5010097A105B10539F02091DF07E7
S11310903091E0072115310559F0D60183E00D9018
S11310A001928150E1F783E090E0A80EB91E02C0DE
S11310B081935F0163E0E62EF12CEC0CFD1CD7015B
S11310C08C91882371F0C70165E270E00E949E3D17
S11310D06C01009731F08E159F0509F0ADCFB6CFA6
S11310E07601D7010D900020E9F78D0101501040E1
S11310F00E191F09101611062CF4C501B701A80119
S11311000E94C73D0A0D1B1DF801108202C08824ED
S11311109924C4010F900F900F90DF91CF911F91EC
S11311200F91FF90EF90DF90CF90BF90AF909F9082
S11311308F9008950F931F93CF93DF936FE270E026
S11311400E94D63D009799F001960E94F907EC01A0
S1131150009779F08C0106C090E00E94773DF80179
S113116081938F01F80180818823B1F702C0C0E028
S1131170D0E0CE01DF91CF911F910F9108956F922E
S11311807F928F929F92AF92BF92CF92DF92EF9213
S1131190FF920F931F93CF93DF93009709F446C0F8
S11311A06EE270E00E94D63DEC01009709F43EC067
S11311B0E090CE02F090CF02C7010E947F3D3C0137
S11311C000E010E05E010894A11CB11C47010894E2
S11311D08108910828C0F701E00FF11FC49165014F
S11311E0F60181916F01882389F0CA32A1F090E061
S11311F00E94773DEC2FF0E08E179F0761F40F5F9C
S11312001F4FF701E00FF11FC491EACFCA3219F45E
S1131210C80101960DC00F5F1F4FF401E00FF11FCD
S1131220E491EC37C1F706151705A8F284E090E0C5
S1131230DF91CF911F910F91FF90EF90DF90CF90AE
S1131240BF90AF909F908F907F906F900895CF92B2
S1131250DF92EF92FF920F931F93CF93DF93EC01F2
S11312607B01E1E1CE2ED12CC80ED91E0FC0C601E0
S11312700E943A118823A1F0E881F9810280F38168
S1131280E02DCE0160ED72E0A8010995C70160ED83
S113129072E040EA50E00E944E1E8C01009739F73C
S11312A0DF91CF911F910F91FF90EF90DF90CF903E
S11312B008958F929F92AF92BF92CF92DF92EF9256
S11312C0FF920F931F93CF93DF930F92CDB7DEB7A7
S11312D05C016B017A01DB011C9200E010E00894D0
S11312E0E108F108F1E18F2E912C880E991E17C0A8
S11312F0D501ED91FC910084F185E02DC501B40187
S1131300AE014F5F5F4F0995882339F089818A3098
S113131049F0F601E00FF11F80830F5F1F4F0E1598
S11313201F0534F3F601E00FF11F108281E00E1562
S11313301F050CF080E00F90DF91CF911F910F916A
S1131340FF90EF90DF90CF90BF90AF909F908F90E1
S11313500895AF92BF92CF92DF92EF92FF920F93D4
S11313601F93CF93DF936C015B01DC010D90002090
S1131370E9F77D010894E108F108E81AF90AC0E0E8
S1131380D0E000E010E01FC00E151F0564F4F60164
S1131390E00FF11F808190E00E946F3D009719F0EB
S11313A00F5F1F4FF1CF0E151F0564F4F601E00F18
S11313B0F11F808190E00E946F3D009719F40F5F48
S11313C01F4FF1CF2196CA15DB05F4F2E501B7FEF4
S11313D002C0C0E0D0E00E151F0564F4F601E00F72
S11313E0F11F808190E00E946F3D009719F00F5F1C
S11313F01F4FF1CFCA15DB0541F50E151F052CF55E
S1131400E801CE15DF0559F0F601EC0FFD1F8081D0
S113141090E00E946F3D009711F42196F2CF7E0177
S1131420E01AF10AC70101960E94433AC82FD92F46
S1131430209769F00C0D1D1DB801A7010E94953D70
S1131440FE01EE0DFF1D108202C0C0E0D0E0CE010F
S1131450DF91CF911F910F91FF90EF90DF90CF908C
S1131460BF90AF9008952F923F924F925F926F92E8
S11314707F928F929F92AF92BF92CF92DF92EF9220
S1131480FF920F931F93CF93DF93CDB7DEB72F97C0
S11314900FB6F894DEBF0FBECDBF8C01BC01685FF0
S11314A07F4FCE0101960E9441138B819C81D8010C
S11314B054969C938E9353978D819E81AF81B8856A
S11314C0F801858B968BA78BB08F89859A85AB8520
S11314D0BC85818F928FA38FB48F8D85858F81E199
S11314E0882E912C800E911EC4010E943A118823EB
S11314F009F4CFC0C4010E94EE10009709F4C9C0DA
S1131500B4C0882349F4C4016EE971E00E949207D3
S1131510C4010E945E11BDC080ED92E060E070E005
S11315200E94A9092C01D80150961C9280E091E0F8
S1131530B2010E94A93D009711F481E015C084E036
S113154091E0B2010E94A93D009731F483E0D801F3
S113155050968C9350970AC089E091E0B2010E94A2
S1131560A93D009719F484E0F801808B80ED92E0A6
S113157061E070E00E94A909D8011F969C938E93A4
S11315801E97C8010E948D06882349F4C80141961C
S113159061EA71E00E949207C4010E945E11662410
S11315A0772446C0D6010D900020E9F77D01089408
S11315B0E108F108EC18FD08F80126843784C1011C
S11315C0B6010E94A93D8E879F87F601EE0DFF1D8F
S11315D0319780818A3261F4A70141505040C101A2
S11315E0B6010E94B93D9C0181E02115310509F045
S11315F080E02E853F852115310511F08823A1F067
S1131600D50112968C911297863021F0F8019089B9
S1131610891751F4D5011396ED91FC911497C801E3
S113162009958823B9F013C0E5E0F0E06E0E7F1E43
S1131630D8011496AD90BC901597A60CB71CF50173
S1131640C080D180C114D10409F0ACCF1BC0C40147
S11316500E945E11D8011E968D919C911F970E9445
S1131660D93AC2010E94D93A14C0C80160ED72E0AF
S113167040EA50E00E9459099091D002992309F060
S113168040CF07C0C801419664E971E00E94920707
S1131690DECF2F960FB6F894DEBF0FBECDBFDF911D
S11316A0CF911F910F91FF90EF90DF90CF90BF905B
S11316B0AF909F908F907F906F905F904F903F90EE
S11316C02F9008950F9380E793E060E040E020E0DE
S11316D000E00E949C368CEC92E066E172E00E948D
S11316E0850488EC92E068EB72E00E9485040F9117
S11316F00895CB010E94F73D0895CB01642F0E9409
S1131700FF3D08950F9387E793E060E040E020E019
S113171000E00E949C360F910895CF93DF93FC0163
S1131720EB018A819B81AC81BD8182839383A483F5
S1131730B58317821682DF91CF910895CF93DF93FB
S1131740EA01DB01FB0181918823E9F740E050E0E5
S113175060E070E01BC04F3F510509F06CF5FE01DD
S1131760E60FF71F42836F5F7F4F40E050E00EC0EB
S11317709A01220F331FE3E0440F551FEA95E1F766
S1131780420F531F90E0C097480F591F8D91882333
S113179031F0643071051CF48E3251F7DCCF4F3FC9
S11317A0510509F04CF46430710534F4C60FD71FA9
S11317B04A8381E090E002C080E090E0DF91CF9125
S11317C008958F929F92AF92BF92CF92DF92EF9241
S11317D0FF920F931F93CF93DF9300D00F92CDB757
S11317E0DEB78C01962E872E0E943433DC01CB01A8
S11317F0F80197838683A8E0EA2EF12CE00EF11E0F
S1131800B8016A5F7F4FC70142E050E00E9467144D
S113181081E090E09B838A83C701BE016E5F7F4FA6
S113182042E050E00E94671480E091E09B838A8349
S1131830C701BE016E5F7F4F42E050E00E94671413
S11318401B821A82C701BE016E5F7F4F42E050E0E7
S11318500E946714C701BE016E5F7F4F42E050E0F3
S11318600E946714C701BE016E5F7F4F42E050E0E3
S11318700E946714C92CD82CA92CB82C1FC0F501C0
S11318806F018191882311F08E32D1F786010A19F4
S11318901B091016110674F40983C701BE016F5F9A
S11318A07F4F41E050E00E946714C701B501A801D1
S11318B00E94671456010894A11CB11CF601808192
S11318C08823E9F61982C701BE016F5F7F4F41E0AB
S11318D050E00E94671400E011E01B830A83C701F3
S11318E0BE016E5F7F4F42E050E00E9467141B838D
S11318F00A83C701BE016E5F7F4F42E050E00E9441
S1131900671481E090E00F900F900F90DF91CF91DA
S11319101F910F91FF90EF90DF90CF90BF90AF9009
S11319209F908F9008954F925F926F927F928F92C3
S11319309F92AF92BF92CF92DF92EF92FF920F935A
S11319401F93CF93DF93CDB7DEB763970FB6F894A9
S1131950DEBF0FBECDBF8C016B014A010E94343340
S11319602B013C0128E0A22EB12CA00EB11EEE24C6
S1131970FF2414C00E943433DC01CB01841995097F
S1131980A609B709C816D906EA06FB0608F40FC16A
S113199062E370E080E090E00E944233C5010E945F
S11319A08A141816190634F7F80182819381A481E8
S11319B0B581418D528D638D748D84179507A6076B
S11319C0B70709F0F7C0858D968D8533910509F029
S11319D0F1C00CC1B8E0EB2EF12CEC0EFD1EC501DC
S11319E0B7014CE050E00E941F14F701428153817B
S11319F05427452754275F834E83F80186819781B6
S1131A00288539858217930711F457FD06C0C5014F
S1131A100E94F4138CEF9FEFD2C04F7052704115A7
S1131A20510531F0C5010E94F4138BEF9FEFC7C03D
S1131A30F70186819781582E492E4114510451F59E
S1131A40C5010E94F4138AEF9FEFB9C0C501BE011E
S1131A506F5F7F4F41E050E00E941F14898188230B
S1131A6021F409C0C5010E943E148981982F915028
S1131A7099838823B9F78981882341F704E010E02A
S1131A80C5010E943E1401501040D1F70894C11CB6
S1131A90D11C02C0CC24DD24F701848195819827D0
S1131AA089279827C816D90688F2EE24FF24C50191
S1131AB0BE016F5F7F4F41E050E00E941F14898197
S1131AC0982F907C69F4882321F40EC0C5010E94EC
S1131AD03E148981982F915099838823B9F704C0C3
S1131AE0C5010E943E1419828981882301F7C5012A
S1131AF0BE016C5F7F4F42E050E00E941F14C5019D
S1131B00BE016E5F7F4F42E050E00E941F1404E06C
S1131B1010E0C5010E943E1401501040D1F7C501E8
S1131B20BE016A5F7F4F42E050E00E941F148C8127
S1131B309D81F1E080309F0719F58A819B8121E026
S1131B4080309207E9F48E819F81E4E080309E0723
S1131B5031F0C5010E94F41387EF9FEF30C0B40148
S1131B606E5F7F4FC50144E050E00E941F1481E086
S1131B7090E025C0C5010E943E140F5F1F4F02C0B4
S1131B8000E010E08E819F81982789279827081705
S1131B90190780F30894E11CF11CE414F50409F01E
S1131BA086CFC5010E94F41386EF9FEF08C08FEF24
S1131BB09FEF05C08EEF9FEF02C08DEF9FEF6396FE
S1131BC00FB6F894DEBF0FBECDBFDF91CF911F914A
S1131BD00F91FF90EF90DF90CF90BF90AF909F90C8
S1131BE08F907F906F905F904F900895C5010E94F1
S1131BF0DA138C3091050CF3EDCE8F929F92AF9255
S1131C00BF92CF92DF92EF92FF920F931F93CF93E5
S1131C10DF9300D000D000D0CDB7DEB76C017B01DC
S1131C204A010E949E0B009709F065C0F60182816B
S1131C309381A481B58140917F0350918003609189
S1131C4081037091820384179507A607B70709F4E7
S1131C5055C048E0A42EB12CAC0CBD1C0E943433FA
S1131C606F70707060507C4FC5010E94EC1481301D
S1131C7009F047C086E592E09A838983F601828160
S1131C809381A481B5818B839C83AD83BE83C5017D
S1131C90BE016F5F7F4F45E350E00E9481148C01C9
S1131CA0009729F1C601B7010E94E10B0097E9F002
S1131CB0C5010E947C148C01009731F418C0FFEF19
S1131CC00F3F1F07A1F403C033E0E32EF12CC6013C
S1131CD068E873E1A4010E94930C8C010894E10864
S1131CE0F108E114F10419F0EACF00E010E0C501B5
S1131CF00E94D71408C001E010E005C00EEF1FEFEA
S1131D0002C000E010E0C80126960FB6F894DEBFCA
S1131D100FBECDBFDF91CF911F910F91FF90EF9038
S1131D20DF90CF90BF90AF909F908F9008950F93C6
S1131D308DE793E060E040E020E000E00E949C3604
S1131D400F910895BC0181E090E044E050E00E94CE
S1131D501C180895BC0185E090E044E050E00E9426
S1131D601C180895BC018FE090E044E050E00E940C
S1131D701C1808956F927F928F929F92AF92BF9298
S1131D80CF92DF92EF92FF920F931F93CF93DF9343
S1131D903C014B015A0169018DEA93E00E94DE1770
S1131DA089E090E0B40146E050E00E941C18C501AF
S1131DB002960E94B20EC80102960E94A20EC701AA
S1131DC002960E94AA0EF60182819381A481B581B4
S1131DD0F30182839383A483B583DF91CF911F9111
S1131DE00F91FF90EF90DF90CF90BF90AF909F90B6
S1131DF08F907F906F9008956F927F928F929F92B1
S1131E00AF92BF92CF92DF92EF92FF920F931F9304
S1131E10CF93DF93CDB7DEB76E970FB6F894DEBFDE
S1131E200FBECDBF3C014B017A0169015801CE01BF
S1131E3049966FEF4FEF2FEF00E00E949C3626E5A6
S1131E4032E03C8B2B8BF70182819381A481B58195
S1131E508D8B9E8BAF8BB88F3E872D87F601828149
S1131E609381A481B5818F87988BA98BBA8B38878E
S1131E702F83F50182819381A481B58189879A8713
S1131E80AB87BC873A8329838B8D9C8DAD8DBE8DAA
S1131E908B839C83AD83BE83C301B401AE014D5ECD
S1131EA05F4F9E01235F3F4F8E01095F1F4F7E01ED
S1131EB00894E11CF11C0E94BA0E6E960FB6F894B9
S1131EC0DEBF0FBECDBFDF91CF911F910F91FF9069
S1131ED0EF90DF90CF90BF90AF909F908F907F90C6
S1131EE06F900895EF92FF920F931F93CF93DF9318
S1131EF0CDB7DEB768970FB6F894DEBF0FBECDBF7F
S1131F007B01DA0112964D915D916D917C9115974B
S1131F104D8B5E8B6F8B788FE6E5F2E0FE87ED8765
S1131F204F87588B698B7A8BF887EF83D901129688
S1131F300D911D912D913C91159709871A872B8737
S1131F403C87FA83E9834B835C836D837E8321E042
S1131F502E83B701AE01435F5F4F9E01295F3F4F60
S1131F608E010F5F1F4F0E94FC0E68960FB6F89407
S1131F70DEBF0FBECDBFDF91CF911F910F91FF90B8
S1131F80EF900895CF93DF93CDB7DEB762970FB686
S1131F90F894DEBF0FBECDBFFB01DA0112964D915E
S1131FA05D916D917C9115974F87588B698B7A8BD6
S1131FB026E532E038872F8349875A876B877C87E9
S1131FC03A8329834B835C836D837E8321E02E8354
S1131FD0BF01AE01495F5F4F9E012F5F3F4F0E94DB
S1131FE0720F62960FB6F894DEBF0FBECDBFDF91BD
S1131FF0CF91089526E532E0FC0131832083FB0173
S11320004281538164817581FC01428353836483DB
S1132010758308950F9383E993E060E040E020E046
S113202000E00E949C3683E893E00E9406370F91FB
S11320300895CF93DF930F92CDB7DEB76983DC01A8
S1132040ED91FC910280F381E02DBE016F5F7F4F23
S113205041E050E009950F90DF91CF910895CF931F
S1132060DF93EC0107C0E881F9810680F781E02D58
S1132070CE010995E881F9810480F581E02DCE0136
S11320800995009781F7DF91CF91089521E0FC0134
S11320908485843009F420E0822F08950F931F93E0
S11320A0CF93DF930F92CDB7DEB78C01DC01ED91B6
S11320B0FC910480F581E02D0995009751F0F80119
S11320C08485BE016F5F7F4F0E942817898190E04D
S11320D002C08FEF9FEF0F90DF91CF911F910F916F
S11320E00895FC0184850E94E6160895CF93DF933A
S11320F00F92CDB7DEB7FC018485BE016F5F7F4FC1
S113210041E050E00E94E616181619061CF4898175
S113211090E002C08FEF9FEF0F90DF91CF91089571
S1132120CF92DF92EF92FF920F931F93CF93DF939F
S1132130CDB7DEB7E5970FB6F894DEBF0FBECDBFBF
S11321407C018B016A01CE0143960E940637CE01C1
S11321504B960E942B15CE010D960E940637CE0198
S1132160079663E873E00E94FA0FCE014396BE011E
S1132170695F7F4F0E948D0BCE014396B801AE017B
S1132180435F5F4F0E94FD0D81309105C1F4D7017B
S1132190ED91FC910484F585E02D86E592E09A8327
S11321A089838F859889A989BA898B839C83AD8318
S11321B0BE83C701BE016F5F7F4FA6010995E596F7
S11321C00FB6F894DEBF0FBECDBFDF91CF911F9144
S11321D00F91FF90EF90DF90CF900895FC016485FC
S11321E0643031F08DEA93E00E94FA189C0102C039
S11321F020E030E0C90108950F931F93CF93DF933C
S11322008C01EA01FC018485843019F481E090E0BA
S113221007C00E949316009739F481E090E0F8011A
S113222093838283C0E0D0E0CE01DF91CF911F91F0
S11322300F910895FC01262F1382128248EE53E079
S113224060E070E0448355836683778384EE91E095
S11322509183808324870895FC018485843041F030
S1132260382F20E0C9018D5F9B4F0E944C180895C0
S113227080E00895CF93DF93EC018C858430D1F016
S1132280CE010E942C11843181F0882371F08831B1
S113229061F08C3161F4E881F9810480F581E02DED
S11322A0CE01099521E0009719F420E001C021E056
S11322B0822F01C080E0DF91CF910895CF92DF9209
S11322C0EF92FF92CF93DF93EC018C858430A9F1D8
S11322D00E948C160E9434336B017C01CE010E9453
S11322E02C11882381F00E943433DC01CB018C193A
S11322F09D09AE09BF09883E23E0920720E0A207AA
S113230020E0B20798F0CE010E942C11882319F026
S11323108C850E94F615EC85F0E0EE0FFF1FE55763
S1132320FC4F1182108284E08C8707C061E070E06A
S113233080E090E00E944233D1CFDF91CF91FF90B3
S1132340EF90DF90CF900895AF92BF92CF92DF923B
S1132350EF92FF920F931F93CF93DF930F92CDB71A
S1132360DEB75C017B016A01FC018485843009F0DD
S113237055C003E014E020E0C80129830E944C18F2
S11323802981882321F0883111F08C3119F4F50169
S1132390248705C02F5F00501F4F243069F7F501D3
S11323A084858430D9F120919B0130919C012F5F69
S11323B03F4F30939C0120939B012115310531F44B
S11323C020E034E030939C0120939B0140919B01D9
S11323D050919C0161E020E00E940416B7016E5FF9
S11323E07F4FF5018485A6010E94571609C061E05C
S11323F070E080E090E00E944233C5010E942C11FD
S1132400882321F484E0F501848708C0C5010E9473
S11324102C11873161F781E090E002C080E090E008
S11324200F90DF91CF911F910F91FF90EF90DF906C
S1132430CF90BF90AF9008950F9389E993E060E047
S113244040E020E000E00E949C360F910895CF9375
S1132450DF930F92CDB7DEB76983DC01ED91FC9178
S11324600280F381E02DBE016F5F7F4F41E050E0B9
S113247009950F90DF91CF910895EF92FF920F93FA
S11324801F93CF93DF93CDB7DEB72D970FB6F89494
S1132490DEBF0FBECDBF7C0100E010E0CE0101968F
S11324A0602F0E941A11CE0101960E942C118823DC
S11324B0B1F4F70144815581802F61E020E00E944E
S11324C00416802F0E944416F70184819581F80137
S11324D0EE0FFF1FE557FC4F9183808305C00F5F0C
S11324E01F4F04301105D1F62D960FB6F894DEBFB8
S11324F00FBECDBFDF91CF911F910F91FF90EF9051
S11325000895FC011382128280E092E0918380831B
S1132510758364830895AF92BF92CF92DF92EF9256
S1132520FF921F93CF93DF93CDB7DEB72D970FB6EE
S1132530F894DEBF0FBECDBF7C014BE8C42E43E050
S1132540D42E10E0AA24BB24CE010196612F0E9450
S11325501A11D6018D919D916D01F7012481358168
S113256082179307D1F4CE0101960E942C11843175
S113257089F0CE0101960E942C118C3171F4CE01A8
S113258001960E94EE10009741F4CE0101960E943C
S11325905E1103C031E0A32EB12C1F5F1430A1F6ED
S11325A0A114B10441F4D701ED91FC910480F581AB
S11325B0E02DC70109952D960FB6F894DEBF0FBE26
S11325C0CDBFDF91CF911F91FF90EF90DF90CF901F
S11325D0BF90AF9008956F927F928F929F92AF9227
S11325E0BF92CF92DF92EF92FF921F93CF93DF932C
S11325F0CDB7DEB72D970FB6F894DEBF0FBECDBFB3
S11326006C014B013A010E948B12EBE8AE2EE3E021
S1132610BE2E10E0EE24FF24CE010196612F0E940D
S11326201A11F501819191915F01F601248135819F
S11326308217930771F4CE0101960E942C11873101
S113264041F4CE010196B401A3010E94FC10E80EEE
S1132650F91E1F5F143001F7C7012D960FB6F894C9
S1132660DEBF0FBECDBFDF91CF911F91FF90EF90E2
S1132670DF90CF90BF90AF909F908F907F906F909E
S11326800895AF92BF92CF92DF92FF920F931F9360
S1132690CF93DF93CDB7DEB72D970FB6F894DEBF97
S11326A00FBECDBF8C016B01CB010E948B12FBE8E6
S11326B0AF2EF3E0BF2EFF24CE0101966F2D0E94B2
S11326C01A11F501819191915F01F60124813581FF
S11326D08217930771F5CE0101960E942C11873160
S11326E031F0CE0101960E942C118C3111F5CE01EE
S11326F001960E94EE100097E1F08B819C81F80115
S1132700938382838D819E81AF81B88584839583F1
S1132710A683B78389859A85AB85BC858087918795
S1132720A287B38784EE91E0918380838D8584872B
S113273009C0F394F4E0FF1609F0BECFC80164E0C9
S11327400E941A11C8012D960FB6F894DEBF0FBE71
S1132750CDBFDF91CF911F910F91FF90DF90CF906C
S1132760BF90AF9008950F938FE993E060E040E04D
S113277020E000E00E949C360F910895DC01ED9169
S1132780FC91008CF18DE02D0995089526E532E049
S1132790FC0131832083FB01418952896389748957
S11327A0FC0142835383648375830895FC01858906
S11327B096890895FC01818D928D0895CF93DF93BE
S11327C00F92CDB7DEB76983DC01ED91FC910280F5
S11327D0F381E02DBE016F5F7F4F41E050E009952A
S11327E00F90DF91CF910895CF93DF93EC0107C051
S11327F0E881F9810680F781E02DCE010995898D64
S11328009A8D0097A9F7DF91CF910895CF93DF9325
S11328100F92CDB7DEB7FC01818D928D009749F000
S11328208485BE016F5F7F4F0E942817898190E0E5
S113283002C08FEF9FEF0F90DF91CF910895CF9358
S1132840DF93EC019A01498D5A8D4115510589F0A8
S11328508C852417350708F4A9010E94E61618167A
S113286019063CF4298D3A8D281B390B3A8F298F90
S113287002C08FEF9FEFDF91CF9108950F931F93C5
S1132880CF93DF930F92CDB7DEB78C01FC01818D1E
S1132890928D0097A1F08485BE016F5F7F4F41E068
S11328A050E00E94E616181619064CF4F801818DC2
S11328B0928D0197928F818F898190E002C08FEF72
S11328C09FEF0F90DF91CF911F910F910895CF93B8
S11328D0DF93EC019B01FA016F89788D8C85A90146
S11328E09F010E9437172F89388D280F391F388F81
S11328F02F8BDF91CF910895FC0184850E9490175E
S11329000895FC01108E178A6E5F7F4F84850E94A4
S11329106B1708950F931F93CF93DF93CDB7DEB753
S113292028970FB6F894DEBF0FBECDBF8C01DC0133
S1132930ED91FC910284F385E02D09958DEA93E0F5
S1132940F80164850E94FA18009721F1D8011C96B9
S11329508C91BE016F5F7F4F48E050E00E94E61605
S113296018161906CCF4C8010F96BE016F5F7F4F8D
S11329700E94F9369D8180E02E81820F911DF8011D
S1132980968B858B9F8180E02885820F911D928F85
S1132990818F02C080E090E028960FB6F894DEBFE5
S11329A00FBECDBFDF91CF911F910F910895CF93AB
S11329B0DF93EC018C85843061F00E94F615EC8580
S11329C0F0E0EE0FFF1FE557FC4F1182108284E008
S11329D08C87DF91CF910895CF92DF92EF92FF928F
S11329E00F931F93CF93DF930F92CDB7DEB76C0194
S11329F07B01FC018485843019F503E014E020E0B8
S1132A00C80129830E944C182981882311F0883138
S1132A1019F4F601248705C02F5F00501F4F24309E
S1132A2079F7F6018485843059F0F686E586128EAE
S1132A30118E62E0A70120E00E94041681E001C02B
S1132A4080E00F90DF91CF911F910F91FF90EF9055
S1132A50DF90CF900895FC011382128248EE53E078
S1132A6060E070E044835583668377838AE092E074
S1132A709183808384E08487CF010F960E94063778
S1132A800895CF92DF92EF92FF920F931F93CF930B
S1132A90DF93CDB7DEB7E5970FB6F894DEBF0FBE70
S1132AA0CDBF7C018B016A01CE0143960E9406379B
S1132AB0CE014B960E942B15CE010D960E9406372F
S1132AC0CE01079663E873E00E94FA0FCE014396A5
S1132AD0BE01695F7F4F0E948D0BCE014396B80102
S1132AE0AE01435F5F4F0E94FD0D81309105C1F43B
S1132AF0D701ED91FC910088F189E02D86E592E003
S1132B009A8389838F859889A989BA898B839C83C1
S1132B10AD83BE83C701BE016F5F7F4FA6010995D8
S1132B20E5960FB6F894DEBF0FBECDBFDF91CF910F
S1132B301F910F91FF90EF90DF90CF9008950F9326
S1132B4085EA93E060E040E020E000E00E949C36EB
S1132B500F91089590E0982F8827845F9B4F44E05D
S1132B6050E00E941C18089590E00496982F88273E
S1132B70860F971F0E944C18089562E070E00E942F
S1132B80B415089590E00496982F8827860F971F10
S1132B90642F0E94BC170895462F62E070E00E94E3
S1132BA0C2150895CF93DF93C82FD62F472F60E126
S1132BB070E00E94C2158C2F61E170E04D2F0E94DD
S1132BC0C215DF91CF910895CF93DF93C82FD62FED
S1132BD0472F64E070E00E94C2158C2F65E070E01E
S1132BE04D2F0E94C215DF91CF910895CF93C82F26
S1132BF08DEA93E06C2F40E10E94FB198C2F6FEF5C
S1132C000E94CC15CF910895EF92FF921F93CF931A
S1132C10DF9300D0CDB7DEB7182F7A01862F81500D
S1132C20853048F5812F2A8369830E94F6152A810D
S1132C306981422F462B812F60E070E00E94C2150B
S1132C40E114F10419F0812FB7010BC06091AB03BB
S1132C507091AC036F5F7F4F7093AC036093AB03D1
S1132C60812F0E94E4158DEA93E0612F41E00E94D8
S1132C70FB1981E001C080E00F900F90DF91CF91AC
S1132C801F91FF90EF900895CF93C82F63E070E0F9
S1132C900E94B415833141F48DEA93E06C2F42E035
S1132CA00E94FB1981E001C080E0CF9108951F9339
S1132CB0CF93DF93182FFB01EA0180818F3F51F4FA
S1132CC081818F3F91F482818F3F79F483818F3F9B
S1132CD061F41DC0882349F48181882331F4828101
S1132CE0882319F48381882391F0209781F0812F20
S1132CF0BF010E94AA15812FBE010E94D2158DEA40
S1132D0093E0612F44E00E94FB1981E001C080E060
S1132D10DF91CF911F910895682F8DEA93E048E0E9
S1132D200E94FB190895CF92DF92EF92FF921F93B6
S1132D30CF93DF93182F6B017A0188E04130580755
S1132D4018F0E12C68E0F62E8DEA93E0612F0E94E2
S1132D502B19EC01812F63E070E00E94B4158731D8
S1132D6011F08C3121F4CE15DF0570F302C0EE248E
S1132D70FF248DEA93E0612FA60197010E94D918E0
S1132D808DEA93E0612F40E20E94FB190DC0812F70
S1132D9063E070E00E94B415882331F4812F0E940F
S1132DA0F615EE24FF2409C0812F0E94BD1584FF6F
S1132DB0EECF812F60E10E94CC15C701DF91CF9146
S1132DC01F91FF90EF90DF90CF900895CF92DF9204
S1132DD0EF92FF920F931F93CF93DF93182F6B0102
S1132DE0EA018DEA93E0612F0E94FA187C010097B2
S1132DF061F4812F63E070E00E94B4158431D1F056
S1132E008823C1F08C31B1F01FC0C817D9070CF466
S1132E107E011E141F0474F48DEA93E0612FA60151
S1132E20970100E00E94B5198DEA93E0612F40E418
S1132E300E94FB19C701DF91CF911F910F91FF9061
S1132E40EF90DF90CF900895EE24EA94FE2CF2CF19
S1132E500F93282FAB018DEA93E0622F21E030E03D
S1132E6001E00E94B51981E090E00F910895AF92BE
S1132E70BF92CF92DF92FF920F931F93CF93DF9372
S1132E80F82E6B015A0189018DEA93E06F2D0E949F
S1132E902B198017910740F48DEA93E06F2D0E945F
S1132EA02B19D82FC92F02C0D02FC12F8DEA93E040
S1132EB06F2DA60195010D2F1C2F0E946C188D2FCC
S1132EC09C2FDF91CF911F910F91FF90DF90CF90B6
S1132ED0BF90AF9008951F93CF93DF93182FFB01FA
S1132EE0EA018081882349F48181882331F4828135
S1132EF0882319F48381882369F0209759F0812F5E
S1132F00BF010E94AA15812FBE010E94D21581E043
S1132F1090E002C080E090E0DF91CF911F9108958E
S1132F20CF93C82F8DEA93E06C2F40E20E94FB19E7
S1132F300CC08C2F0E94BD1583FF07C08C2F68E145
S1132F400E94CC1580E090E00BC08C2F0E94BD1530
S1132F5084FFEFCF8C2F60E10E94CC1581E090E0DC
S1132F60CF9108958EBD0DB407FEFDCF8EB50895A3
S1132F702A9808952A9A08951F93CF93DF9300D037
S1132F80CDB7DEB7182F6A8399830E94B81780EFF4
S1132F900E94B2179981892F0E94B217812F0E9433
S1132FA0B2176A81862F0E94B2170E94BA1781E075
S1132FB00F900F90DF91CF911F910895CF93DF93DE
S1132FC0EC016CE271E080E090E00E9442330E94E8
S1132FD09329229A80E090E060E80E94BC178BE17C
S1132FE090E065E50E94BC178AE190E065E50E94E7
S1132FF0BC1780E090E49983888380E090E6998709
S1133000888780E098E49B838A8380E098E69B87A6
S11330108A8780E090E59D838C8380E090E79D879C
S11330208C8780E098E59F838E8380E098E79F8774
S11330308E87DF91CF910895CF92DF92EF92FF9226
S11330400F931F93CF93DF938C016A017B01C0E040
S1133050D0E015C00E94B81780EF0E94B217812FEC
S11330600E94B217802F0E94B2170F5F1F4FF70103
S113307081917F010E94B2170E94BA172196CC1544
S1133080DD0541F7CE01DF91CF911F910F91FF90A4
S1133090EF90DF90CF9008951F93CF93DF930F921B
S11330A0CDB7DEB7182F99830E94B8178FE00E941E
S11330B0B2179981892F0E94B217812F0E94B217EB
S11330C080E00E94B21789830E94BA1789810F9009
S11330D0DF91CF911F9108956F927F928F929F926B
S11330E0AF92BF92CF92DF92FF920F931F93CF9331
S11330F0DF935C01F62E3A0149016801862F64E2F0
S113310070E00E94B415C82F8F2D65E270E00E9414
S1133110B4153C2F20E0082F10E0022B132B060DD2
S1133120171DA80157708F2D90E0880F991FA80EC6
S1133130B91EF50120813181240F351FCA018C0D80
S11331409D1DF8E081309F0798F0C0E0D8E0C41BD3
S1133150D50BC901B401AE010E941C18B4016C0F57
S11331607D1FA6014C1B5D0BF5018081918103C07D
S1133170C901B401A6010E941C180C0D1D1D8F2D40
S113318064E270E0412F0E94C2158F2D65E270E069
S1133190402F0E94C215DF91CF911F910F91FF9094
S11331A0DF90CF90BF90AF909F908F907F906F9063
S11331B008950F931F93FA01890140E050E09F01A5
S11331C00E946C181F910F910895CF93DF93C82F1D
S11331D066E270E00E94B415D82F8C2F67E270E08D
S11331E00E94B4153D2F20E090E0822B932BDF91B9
S11331F0CF910895FF920F931F93CF93DF93F62EF1
S1133200C0E0D0E08F2D0E94E5188C01009721F0DA
S11332108F2D0E94E518EC01C017D10799F7CE0154
S1133220DF91CF911F910F91FF900895CF93DF937A
S1133230C82F60E270E00E94B415D82F8C2F61E291
S113324070E00E94B4153D2F20E090E0822B932B78
S1133250DF91CF910895FF920F931F93CF93DF9344
S1133260F62EC0E0D0E08F2D0E9416198C01009735
S113327021F08F2D0E941619EC01C017D10799F780
S1133280CE01DF91CF911F910F91FF900895CF92BE
S1133290DF92EF92FF920F931F93CF93DF938C01F2
S11332A06A017B01C0E0D0E016C00E94B8178FE02D
S11332B00E94B217812F0E94B217802F0E94B2176A
S11332C00F5F1F4F80E00E94B217F70181937F01C7
S11332D00E94BA172196CC15DD0539F7CE01DF918E
S11332E0CF911F910F91FF90EF90DF90CF900895B1
S11332F0CF92DF92EF92FF920F931F93CF93DF93BE
S1133300690178015770C62FD0E02496CC0FDD1FD9
S1133310C80FD91F28813981240F351FC801840F94
S1133320951F68E08130960790F000E018E0041BD8
S1133330150BC901B601A8010E944719B601600F17
S1133340711FA701401B510B8881998103C0C901DA
S1133350B601A8010E944719DF91CF911F910F91E7
S1133360FF90EF90DF90CF9008958F929F92AF924D
S1133370BF92CF92DF92EF92FF920F931F93CF935E
S1133380DF935C01F62E4A016901E02E862F68E284
S113339070E00E94B415C82F8F2D69E270E00E947E
S11333A0B4153C2F20E0C82FD0E0C22BD32BC5018D
S11333B06F2DAE01940186010E947819EE2071F4FC
S11333C0CC0DDD1D8F2D68E270E04D2F0E94C215DB
S11333D08F2D69E270E04C2F0E94C215DF91CF91CE
S11333E01F910F91FF90EF90DF90CF90BF90AF901F
S11333F09F908F900895CF93C62F862F61E070E041
S11334000E94C2158C2F61E070E00E94B4158823DD
S1133410C9F7CF9108951092C2031092C30310927A
S1133420C6031092C80382E090E0A0E0B0E080936D
S1133430C9039093CA03A093CB03B093CC03109217
S1133440E0031092EA031092E9038EE292E0909373
S1133450E8038093E7031092EC0308958EBD0DB446
S113346007FEFDCF08958FEF0E942E1A8EB50895A2
S1133470FC01848161E00E9437340895FC01848159
S113348060E00E9437340895CF93DF93EC018E817E
S11334908823D1F08FEF8EBD4FEF04C00DB407FE2B
S11334A0FDCF4EBD8F8198859C012F5F3F4F38879C
S11334B02F8322E08130920788F30DB407FEFDCFFD
S11334C0CE010E94381A1E82DF91CF910895673091
S11334D028F026E1FC01258380E00895962F8DB520
S11334E060FD02C0663011F48E7F01C081608DBD25
S11334F08CB58C7F8CBD3CB592FF02C022E001C02C
S113350020E081E091FF80E0832B822B8CBD81E061
S113351008950F931F93CF93DF93EB010E943433ED
S11335208B019C010E94331A8F3F49F00E9434336F
S1133530601B710B6C177D07A8F380E001C081E06C
S1133540DF91CF911F910F9108958F929F92AF9227
S1133550BF92FF920F931F93CF93DF938C01F62EAC
S113356049015A010E94441AC8010E943E1AC80126
S11335706CE271E00E94891A8F2D80640E942E1AD9
S1133580C8E1D0E0D501C4010C2E04C0B695A795BE
S1133590979587950A94D2F70E942E1A28978FEF51
S11335A0C83FD80779F7FF2029F0E8E0FE1621F09C
S11335B08FEF03C085E901C087E80E942E1AC0E09E
S11335C00E94331AF801828787FF04C0CF3F11F0AD
S11335D0CF5FF6CFDF91CF911F910F91FF90BF90F6
S11335E0AF909F908F900895AF92BF92CF92DF9249
S11335F0EF92FF920F931F93CF93DF93EC01062F6B
S11336001B8619861E821D824C830E943433DC0182
S1133610CB015C018C8161E00E94F833CE010E94F1
S1133620381A8CE060E00E94F8338BE061E00E947D
S1133630F8338DE061E00E94F8338AE061E00E9493
S1133640F8338AE061E00E94373483E58CBD8DB5A0
S11336508E7F8DBD1AE08FEF0E942E1A1150D9F77C
S1133660CE010E943E1A0AC00E9434336A197B09B3
S113367087E0613D780710F081E057C0CE0160E03B
S113368020E030E0A9010E94A51A182F8A87813012
S113369059F7CE0168E02AEA31E040E050E00E94A8
S11336A0A51A82FF02C01B870CC014E00E94331AC3
S11336B08A871150D9F78A3A11F082E036C082E045
S11336C08B878B85823031F4C12CD12CE12C80E4A2
S11336D0F82E0EC0CC24DD2476010AC00E943433B7
S11336E06A197B0987E0613D780710F088E01DC006
S11336F0CE0167E320E030E0A9010E94A51ACE01C3
S113370069E2A70196010E94A51A8A87882331F7E6
S11337108B858230E9F4CE016AE320E030E0A90130
S11337200E94A51A882339F086E08D83CE010E9479
S1133730381A80E014C00E94331A807C803C11F453
S113374083E08B870E94331A0E94331A0E94331A33
S1133750CE010E94381ACE01602F0E94671ADF91B1
S1133760CF911F910F91FF90EF90DF90CF90BF907A
S1133770AF9008950F931F93CF93DF93EC010E94B2
S113378034338B019C010AC00E943433601B710BDB
S113379081E06D32780710F08FE008C00E94331A80
S11337A08A878F3F89F38E3F39F08DE08D83CE0178
S11337B00E94381A80E001C081E0DF91CF911F910F
S11337C00F9108958F929F92AF92BF92CF92DF9202
S11337D0EF92FF920F931F93CF93DF93EC014A0173
S11337E05B0169010115110509F47EC0C801820F4E
S11337F0931F22E08130920708F071C08E818823E4
S113380071F088819981AA81BB81481759076A0799
S11338107B0729F48F819885C816D90618F5888204
S11338209982AA82BB828B85833039F079E0880C37
S1133830991CAA1CBB1C7A95D1F7CE0161E1A501A4
S113384094010E94A51A882319F083E08D8347C050
S1133850CE010E94BA1B882309F441C018861F8236
S113386081E08E838FEF8EBD2FEF09C00DB407FE6C
S1133870FDCF2EBD8F819885019698878F838F8188
S113388098858C159D0590F3980121503040F701DF
S113389080E090E04FEF07C00DB407FEFDCF5EB5AA
S11338A051934EBD019682179307B0F30DB407FEF2
S11338B0FDCF8EB52E0D3F1DF90180838F81988534
S11338C0800F911F98878F832985222321F0F2E0AE
S11338D080309F0748F0CE010E94441A05C0CE01F3
S11338E00E94381A80E001C081E0DF91CF911F91DE
S11338F00F91FF90EF90DF90CF90BF90AF909F908B
S11339008F900895EF92FF920F931F93790120E017
S113391030E000E012E00E94E21B1F910F91FF9043
S1133920EF900895CF93DF93EC016EBDFA0180E030
S113393090E00DB407FEFDCF20812EBD0DB407FE2F
S1133940FDCF21812EBD0296329622E0803092076F
S113395081F70DB407FEFDCF8FEF0E942E1A8FEF73
S11339600E942E1A0E94331A8A878F71853039F08B
S113397081E18D83CE010E94381A80E001C081E08C
S1133980DF91CF910895CF92DF92EF92FF920F9340
S11339901F93CF93DF93EC016A017B0189014115E9
S11339A051056105710511F482E132C08B858330C4
S11339B039F0E9E0CC0CDD1CEE1CFF1CEA95D1F7D4
S11339C0CE0168E1A70196010E94A51A882311F08F
S11339D084E01EC0CE016EEFA8010E94921C8823D1
S11339E0C1F0CE0168E572E00E94891A882311F4BF
S11339F085E10EC0CE016DE020E030E0A9010E9417
S1133A00A51A882321F40E94331A882379F084E1CB
S1133A108D83CE010E94381A80E0DF91CF911F91EF
S1133A200F91FF90EF90DF90CF900895CE010E9408
S1133A30381A81E0F2CFCF93DF93EC019C012A5F27
S1133A403F4F8B8D9C8D41E050E060E070E00E9420
S1133A50FC268823A1F08F89988DA98DBA8D0097B3
S1133A60A105B10571F48E819F81A885B9858F8BDD
S1133A70988FA98FBA8F8C8180688C8302C080E074
S1133A8001C081E0DF91CF910895CF92DF92EF9250
S1133A90FF921F93CF93DF93EC010E941B1D882399
S1133AA009F44EC0EB8DFC8DCE80DF80E884F98470
S1133AB08EEF9FEFAFEFBFEFC80ED91EEA1EFB1EBD
S1133AC0058404C0CC0CDD1CEE1CFF1C0A94D2F748
S1133AD086859785A089B189C80ED91EEA1EFB1E6A
S1133AE014810894C108D108E108F1080BC0C7018A
S1133AF0B601610F711D811D911D0E943825882317
S1133B00F9F01150112399F7EB8DFC8D80E092E0D0
S1133B10A0E0B0E0058404C0880F991FAA1FBB1F52
S1133B200A94D2F74B895C896D897E89480F591FA5
S1133B306A1F7B1F4B8B5C8B6D8B7E8B81E001C07E
S1133B4080E0DF91CF911F91FF90EF90DF90CF90B5
S1133B500895CF93DF93EC01462F8E859F85A88926
S1133B60B989BC01CD010E94FD24882351F08A89C2
S1133B7090E025E0880F991F2A95E1F7815F9B4F1C
S1133B8002C080E090E0DF91CF910895DC01FB0159
S1133B908BE090E291938150E9F730E047E021C057
S1133BA02E3241F44A3029F138E04AE01AC0E217D3
S1133BB019F41FC087EC92E0FC010196E491EE2316
S1133BC0B1F74317B0F02132A0F02F37A0F4FB0176
S1133BD0E30FF11D822F81568A3108F4205220838D
S1133BE03F5F2D912223E1F681E0FB019081903229
S1133BF019F480E0089580E008950F931F93CF9304
S1133C00DF93EC018B018D81882309F041C0FB0116
S1133C1087898031B1F482E08D831F8A188E198ED2
S1133C201A8E808D918DA0E0B0E035E0880F991F49
S1133C30AA1FBB1F3A95D1F78B8B9C8BAD8BBE8B88
S1133C4015C0803229F583E08D83FB01428D538DAD
S1133C50648D758D4F8B588F698F7A8F9E012D5E81
S1133C603F4FC8010E94E725882391F01C8F0B8FDA
S1133C7081E08C831E821F82188619861A861B8611
S1133C801C861D861E861F86188A198A1A8A01C0F8
S1133C9080E0DF91CF911F910F9108952F923F9271
S1133CA04F925F926F927F928F929F92AF92BF9248
S1133CB0CF92DF92EF92FF920F931F93CF93DF93F4
S1133CC000D000D000D0CDB7DEB79C838B83862E86
S1133CD0272E2A01DC0115968C911597882309F467
S1133CE0E5C014968C91149780FFE0C0FAC02A01B5
S1133CF0481A590A3201A82CB22CEB81FC81369661
S1133D00FA83E983212C02E0302ECAC0EB81FC81C6
S1133D1082859385A485B5857FEF872E71E0972EE4
S1133D208822992225816C017D0119E0F694E7949B
S1133D30D794C7941A95D1F7438D548D5E834D83E0
S1133D40223061F4DA015A964D915D916D917C9126
S1133D505D974C0D5D1D6E1D7F1D4EC0ED81FE8176
S1133D60048101500C218114910411F5002301F503
S1133D700097A105B10559F4EB81FC818789908DE9
S1133D80A18DB28D86839783A087B18711C0AB8143
S1133D90BC8116964D915D916D917C9119978D81A1
S1133DA09E8129813A810E946125882309F47EC07D
S1133DB0AB81BC815B96ED91FC915C9716964D911D
S1133DC05D916D917C9119974250504060407040D4
S1133DD0058404C0440F551F661F771F0A94D2F749
S1133DE086859785A089B189480F591F6A1F7B1F53
S1133DF0400F511D611D711DC1018819990963018D
S1133E008615970508F46C01EB81FC81848186FD9D
S1133E1006C0F0E0CF16F2E0DF0609F080C0809122
S1133E209D0190919E01A0919F01B091A00148171E
S1133E3059076A077B0709F472C080910D049091B9
S1133E400E049401860175010E94E21B882371F11E
S1133E50AC0CBD1C12C09401215F3B4FC9018C0DF9
S1133E609D1DF901D50102C041914D93E817F90751
S1133E70D9F7E21BF30BAE0EBF1EA60160E070E0A3
S1133E80EB81FC8182859385A485B585840F951F7C
S1133E90A61FB71F82879387A487B5876C187D08F0
S1133EA06114710409F032CFC20102C08FEF9FEF99
S1133EB026960FB6F894DEBF0FBECDBFDF91CF912B
S1133EC01F910F91FF90EF90DF90CF90BF90AF9034
S1133ED09F908F907F906F905F904F903F902F9026
S1133EE00895AB81BC8153964D915D916D917C9108
S1133EF056971A968D919D910D90BC91A02D82019B
S1133F0020E030E06A017B01C81AD90AEA0AFB0AF8
S1133F10C016D106E206F30608F4E9CEEBCECB01D7
S1133F20BA0140E00E94FD24882309F094CFBECF5B
S1133F30CF92DF92EF92FF920F931F93CF93DF9371
S1133F400F92CDB7DEB78C01FC018581823078F009
S1133F50C284D384E484F584C801BE016F5F7F4FBB
S1133F6041E050E00E944E1E8130910561F080E0F6
S1133F7090E00F90DF91CF911F910F91FF90EF9000
S1133F80DF90CF900895F80182859385A485B58547
S1133F904F96A11DB11D82879387A487B587D7014A
S1133FA0C60125E0B695A795979587952A95D1F7EB
S1133FB08F7090E035E0880F991F3A95E1F7815FA3
S1133FC09B4FD7CF8F929F92AF92BF92CF92DF92A7
S1133FD0EF92FF920F931F93CF93DF93EC014A016B
S1133FE05B012D81222309F475C08B899C89AD89DD
S1133FF0BE8984179507A607B70708F46BC078C075
S113400081149104A104B10449F41E821F8218860C
S113401019861A861B861C861D865AC04A855B85AE
S11340206C857D85EB8DFC8D258530E0275F3F4FCA
S1134030DB01CA010197A109B109022E04C0B6959A
S1134040A795979587950A94D2F77501640108940A
S1134050C108D108E108F10804C0F694E794D794A4
S1134060C7942A95D2F7C816D906EA06FB0628F0A3
S1134070411551056105710549F48F89988DA98D04
S1134080BA8D8E839F83A887B98716C0C81AD90AA8
S1134090EA0AFB0A11C04E815F81688579858B8DA0
S11340A09C8D98010E9461250894C108D108E108FB
S11340B0F108882321F40EC08E010A5F1F4FC1143A
S11340C0D104E104F10439F78A869B86AC86BD8667
S11340D081E001C080E0DF91CF911F910F91FF90AB
S11340E0EF90DF90CF90BF90AF909F908F90089506
S11340F0223009F085CFE8CF0F931F93CF93DF933E
S11341008C01FC0185818823B1F1848187FF30C053
S1134110C80161E00E94A91DEC01009761F1F8015A
S11341208581823040F483899489A589B6898C8FEE
S11341309D8FAE8FBF8FF8018789908DA18DB28D31
S11341409B8F8A8FBD8BAC8BE0910604F0910704A2
S1134150309751F0BE016A5E7F4FCE0148960995B3
S1134160888D998D9B8B8A8BF80184818F778483CA
S11341700E94BF2401C080E0DF91CF911F910F9175
S11341800895CF93DF93EC010E947C20882319F0DB
S11341901D8281E001C080E0DF91CF9108954F92AC
S11341A05F926F927F928F929F92AF92BF92EF92A3
S11341B0FF920F931F93CF93DF9300D000D0CDB71E
S11341C0DEB77C014A015B01DC0115968C911597E1
S11341D0813009F091C014968C91149781FF8CC0A2
S11341E09FC00097A105B10509F484C0F70142847A
S11341F0538464847584C701B501A4010E94E21F3D
S1134200882309F479C0D7015B968D919C915C97C2
S113421081149104A104B10489F457964D915D91E0
S11342206D917C915A970E941128882309F464C0E7
S1134230F701178A108E118E128E3DC0D701169683
S11342404D915D916D917C9119979E012F5F3F4F28
S11342500E946125882309F44FC0D7015B96ED9134
S1134260FC915C9749815A816B817C81878980317B
S113427029F488EF9FEFA0E0B0E004C088EF9FEF3F
S1134280AFEFBFE0481759076A077B07A0F4CF01D7
S11342900E941128882381F1F701468157816085A6
S11342A07185838D948D0FEF1FEF2FEF3FE00E94F8
S11342B05226882309F1D70153968D929D92AD928F
S11342C0BC92569714968C911497806814968C938C
S11342D0C7010E947C20882379F0B501A401481409
S11342E059046A047B0410F4B301A201C7010E94BB
S11342F0E21F03C081E001C080E00F900F900F9097
S11343000F90DF91CF911F910F91FF90EF90BF908D
S1134310AF909F908F907F906F905F904F90089593
S1134320F70183899489A589B68984179507A60717
S1134330B70708F056CFE0CF1F93CF93DF93EC017C
S1134340142FE62FF0E035E0EE0FFF1F3A95E1F76A
S1134350E15FFB4F8385817121F0842F827409F022
S113436052C06A8B80919D0190919E01A0919F0102
S1134370B091A0018E879F87A88BB98B44895589FA
S113438060E070E0BA0155274427828D938DA0E048
S1134390B0E0482B592B6A2B7B2B4F8B588F698F9E
S11343A07A8F838590E088719070009751F4848DA2
S11343B0958DA68DB78D8B8B9C8BAD8BBE8B81E041
S11343C00DC080319105F9F49E012D5E3F4F8B8D18
S11343D09C8D0E94E7258823B1F084E08D83812F92
S11343E08F708C831E821F82188619861A861B86FC
S11343F01C861D8616FF09C0CE0140E050E0BA01BC
S11344000E94CF2003C080E001C081E0DF91CF9102
S11344101F9108954F925F926F927F928F929F9215
S1134420AF92BF92CF92DF92EF92FF920F931F93BE
S1134430CF93DF93CDB7DEB72B970FB6F894DEBFDB
S11344400FBECDBF3C015B01CA01822EF301258161
S1134450222309F0BDC08E010F5F1F4FB8010E94D7
S1134460C61D882309F4B4C0F501838D948DF3012E
S1134470948F838FF5011682178210861186128617
S1134480138614861586992428013DC0C5010E940F
S1134490981FBC01009709F49BC097018601E5E0D1
S11344A03695279517950795EA95D1F70F70FC0176
S11344B08081882311F0853EB9F4992081F4F301B9
S11344C0028B80919D0190919E01A0919F01B091DA
S11344D0A00186879787A08BB18B99249394FB01C5
S11344E08081882381F41EC0C2014BE050E00E9409
S11344F0883D009741F4882D8073803309F468C0A7
S1134500C301602F61C0F501C284D384E484F584BF
S113451083899489A589B689C816D906EA06FB0653
S113452008F4B4CF882D8271823109F051C09920EA
S113453041F0C30161E00E94A91D8C01009779F448
S113454047C0F5018581823009F442C0C5010E944B
S1134550451D8823E9F1F301128A0FE014E080E29B
S1134560F80111928A95E9F7D801FE0131968BE0A2
S113457001900D928150E1F7E0910604F091070457
S1134580309739F0B801625F7F4FC80140960995B2
S113459009C081E298E2F801918B808B80E098E079
S11345A097878687F80180899189938B828B918F75
S11345B0808F86859785978B868B0E94BF2488235E
S11345C039F0C301F3016289482D0E949C2101C086
S11345D080E02B960FB6F894DEBF0FBECDBFDF91FF
S11345E0CF911F910F91FF90EF90DF90CF90BF90EC
S11345F0AF909F908F907F906F905F904F900895B1
S11346002F923F924F925F926F927F928F929F92DE
S1134610BF92CF92DF92EF92FF920F931F93CF93AB
S1134620DF9300D000D000D0CDB7DEB78C01B62E1A
S1134630C72E5E834D83DC0115968C9115978130CE
S113464009F066C114968C91149781FF61C183C1EE
S1134650F801438954896589768982859385A4857F
S1134660B58584179507A607B70731F0C8010E94DE
S1134670E21F882309F44CC12D803E804B2C5C2C16
S113468017C1F801238D348DF901B480BA94AC01BB
S1134690BD01032E39E076956795579547953A9570
S11346A0D1F7302DB4224FEF642E41E0742E6822EE
S11346B07922BB2009F04EC06114710409F04AC08C
S11346C0D80116964D915D916D917C911997411584
S11346D051056105710581F457968D919D910D9059
S11346E0BC91A02D0097A105B10549F1F80186837D
S11346F09783A087B1872EC0C9019E012F5F3F4FCA
S11347000E946125882309F40AC149815A816B8179
S11347107C81D8015B96ED91FC915C97878980310F
S113472029F488EF9FEFA0E0B0E004C088EF9FEF8A
S1134730AFEFBFE0481759076A077B0730F0C8019D
S11347400E941B1D882331F4E3C0F801468357837C
S11347506087718780E092E086199709410182158C
S1134760930508F44C01D8015B96ED91FC915C979C
S11347701696CD90DD90ED90FC9019978EEF9FEFFB
S1134780AFEFBFEFC80ED91EEA1EFB1E058404C09E
S1134790CC0CDD1CEE1CFF1C0A94D2F78685978591
S11347A0A089B189C80ED91EEA1EFB1ECB0CD11CF0
S11347B0E11CF11C90E0891692E0990649F580917C
S11347C09D0190919E01A0919F01B091A0018C1533
S11347D09D05AE05BF0559F48FEF9FEFDC01809373
S11347E09D0190939E01A0939F01B093A00180919D
S11347F00D0490910E04B701A60192010E94C31CFE
S1134800882309F485C0A0E0B2E04A0E5B1E3EC0D6
S11348106114710409F5F80182859385A485B58531
S1134820438954896589768984179507A607B7074C
S113483098F00E94BF24882309F46AC0C0929D01A5
S1134840D0929E01E0929F01F092A00180910C040D
S1134850816080930C0408C0C701B60141E00E9446
S1134860FD24882309F454C09301215F3B4FC901FF
S1134870880D991DD201F90102C04D914193E817A9
S1134880F907D9F7E21BF30B4E0E5F1E28183908FF
S1134890A40160E070E0F80182859385A485B58564
S11348A0840F951FA61FB71F82879387A487B58798
S11348B0F80182859385A485B5852114310409F016
S11348C0E0CE4389548965897689481759076A0770
S11348D07B0740F4838B948BA58BB68B8481806893
S11348E084830DC08091060490910704009739F0E9
S11348F08D819E81009719F0848180688483F801FA
S1134900848183FF0EC0C8010E947C20882349F45F
S113491081E090E0D80113969C938E9312971E82A7
S11349201D828D819E8126960FB6F894DEBF0FBE40
S1134930CDBFDF91CF911F910F91FF90EF90DF904A
S1134940CF90BF909F908F907F906F905F904F908B
S11349503F902F90089582FD7BCE8ECECF93DF9330
S11349600F92CDB7DEB76983BE016F5F7F4F41E021
S113497050E00E9400230F90DF91CF910895809121
S11349800C048823B1F140919D0150919E016091E6
S11349909F017091A00180910D0490910E042FE06D
S11349A034E00E94C31C882331F1409108045091E3
S11349B0090460910A0470910B04411551056105C5
S11349C0710591F080910D0490910E042FE034E074
S11349D00E94C31C882359F0109208041092090401
S11349E010920A0410920B0410920C0402C080E08E
S11349F0089581E0089580E00895CF92DF92EF92C8
S1134A00FF92CF936B017C01C42F80919D01909103
S1134A109E01A0919F01B091A0018C159D05AE054A
S1134A20BF05C1F00E94BF248823D9F080910D04F2
S1134A3090910E04B701A6012FE034E00E94821C7D
S1134A40882379F0C0929D01D0929E01E0929F014B
S1134A50F092A00180910C048C2B80930C0481E0D3
S1134A6001C080E0CF91FF90EF90DF90CF90089548
S1134A70CF92DF92EF92FF926B017C010E94BF24E0
S1134A808823C9F0EFE0F4E080E090E01192019611
S1134A9022E080309207D1F7C0929D01D0929E010E
S1134AA0E0929F01F092A00180910C0481608093B8
S1134AB00C0481E001C080E0FF90EF90DF90CF9084
S1134AC00895AF92BF92CF92DF92EF92FF920F932D
S1134AD01F93CF93DF93EC016A017B015901898510
S1134AE09A85AB85BC850196A11DB11D84179507D8
S1134AF0A607B70708F45FC04B895C896D897E8976
S1134B008F89803129F4BB27AF2D9E2D8D2D09C0AF
S1134B10D701C60137E0B695A795979587953A953D
S1134B20D1F78C019D01040F151F261F371FC901E2
S1134B30B80100919D0110919E0120919F01309137
S1134B40A001601771078207930729F040E00E94D3
S1134B50FD24882381F18F89803191F48FEF90E0D7
S1134B60A0E0B0E0C822D922EA22FB22F601EE0F2F
S1134B70FF1FE15FFB4F80819181A0E0B0E014C092
S1134B800FE710E020E030E0C022D122E222F3223D
S1134B90F601EE0FFF1FEE0FFF1FE15FFB4F808159
S1134BA09181A281B381BF70F50180839183A28337
S1134BB0B38381E001C080E0DF91CF911F910F9119
S1134BC0FF90EF90DF90CF90BF90AF9008956F92D9
S1134BD07F928F929F92AF92BF92CF92DF92EF9289
S1134BE0FF920F931F93CF93DF9300D000D0CDB7E4
S1134BF0DEB78C0149835A836B837C833901CC24CF
S1134C00DD247601812CF2E09F2EA12CB12C498168
S1134C105A816B817C81C8019E012F5F3F4F0E94A6
S1134C206125882359F1D501C401F801058404C024
S1134C30880F991FAA1FBB1F0A94D2F7C80ED91E4A
S1134C40EA1EFB1E49815A816B817C8187898031F0
S1134C5029F488EF9FEFA0E0B0E004C088EF9FEF55
S1134C60AFEFBFE0481759076A077B0780F2F301EB
S1134C70C082D182E282F38281E001C080E00F90A1
S1134C800F900F900F90DF91CF911F910F91FF9094
S1134C90EF90DF90CF90BF90AF909F908F907F90D8
S1134CA06F9008954F925F926F927F928F929F922E
S1134CB0AF92BF92CF92DF92EF92FF920F931F9326
S1134CC0CF93DF93EC016A017B0128013901423063
S1134CD051056105710508F47DC089859A85AB8508
S1134CE0BC850196A11DB11D84179507A607B707BA
S1134CF008F470C04B895C896D897E898F89803105
S1134D0029F4BB27AF2D9E2D8D2D09C0D701C601D7
S1134D1027E0B695A795979587952A95D1F74C01E5
S1134D205D01840E951EA61EB71E80919D01909173
S1134D309E01A0919F01B091A00188169906AA0630
S1134D40BB0641F0C501B40140E00E94FD24882364
S1134D5009F440C08F89803181F48FEF90E0A0E0A6
S1134D60B0E0C822D922EA22FB22F601EE0FFF1F8F
S1134D70E15FFB4F5182408213C08FE790E0A0E0D7
S1134D80B0E0C822D922EA22FB22F601EE0FFF1F6F
S1134D90EE0FFF1FE15FFB4F4082518262827382FC
S1134DA080910C04816080930C048A89823080F0A5
S1134DB08D819E81AF81B885880D991DAA1DBB1D6B
S1134DC08093080490930904A0930A04B0930B04FD
S1134DD081E001C080E0DF91CF911F910F91FF909E
S1134DE0EF90DF90CF90BF90AF909F908F907F9087
S1134DF06F905F904F9008952F923F924F925F92E1
S1134E006F927F928F929F92AF92BF92CF92DF92D6
S1134E10EF92FF920F931F93CF93DF93CDB7DEB73B
S1134E202F970FB6F894DEBF0FBECDBF1C014C8781
S1134E305D876E877F873B872A87D9014D905D9078
S1134E406D907C901397411451046104710431F006
S1134E500894411C511C611C711C10C0FC01408051
S1134E60518062807380F1E0FD832C853D854E8501
S1134E705F85213031054105510509F01D82D101BD
S1134E801996CD90DD90ED90FC901C970894C11C70
S1134E90D11CE11CF11C530142011E821F821886A1
S1134EA01986F10181859285A385B4852E813F8180
S1134EB048855985281739074A075B0708F095C0C4
S1134EC0C814D904EA04FB0450F442E0842E912C63
S1134ED0A12CB12C52E0452E512C612C712CC10116
S1134EE0B501A4019E012F5F3F4F0E9461258823D5
S1134EF009F47BC049815A816B817C81D501C4014D
S1134F000196A11DB11D411551056105710519F0E9
S1134F102C013D010DC084199509A609B7092C85FA
S1134F203D854E855F8582179307A407B50789F0F1
S1134F308E819F81A885B9850196A11DB11D8E839F
S1134F409F83A887B9870894811C911CA11CB11C5C
S1134F50A8CFC101A401B5010FEF1FEF2FEF3FE070
S1134F600E945226882391F440C068017901089474
S1134F70C108D108E108F108C101B701A6010E94E6
S1134F805226882391F19701860102C0950184017C
S1134F90401651066206730640F3AA85BB854D91FF
S1134FA05D916D917C9113974115510561057105D2
S1134FB039F0C101930182010E9452268823A9F08D
S1134FC0EA85FB854082518262827382FD81FF23E0
S1134FD071F00894411C511C611C711CD1014D924B
S1134FE05D926D927C92139702C080E001C081E0D3
S1134FF02F960FB6F894DEBF0FBECDBFDF91CF91D1
S11350001F910F91FF90EF90DF90CF90BF90AF90E2
S11350109F908F907F906F905F904F903F902F90D4
S11350200895AF92BF92CF92DF92EF92FF920F93C7
S11350301F93CF93DF9300D000D0CDB7DEB75C01D0
S11350406A017B0182E090E0A0E0B0E0F50180839A
S11350509183A283B383C501B701A6019E012F5F8B
S11350603F4F0E946125882311F1C501B701A601B4
S113507000E010E098010E9452268823C1F0C98004
S1135080DA80EB80FC80F5018789803129F488EF90
S11350909FEFA0E0B0E004C088EF9FEFAFEFBFE068
S11350A0C816D906EA06FB06B0F281E001C080E02A
S11350B00F900F900F900F90DF91CF911F910F9150
S11350C0FF90EF90DF90CF90BF90AF9008956F92D4
S11350D07F928F929F92AF92BF92CF92DF92EF9284
S11350E0FF921F93CF93DF93EC01142F70930E0460
S11350F060930D04442381F1453008F005C160E05C
S113510070E0CB0140E00E94FD24882309F4FCC038
S1135110E12FF0E0A4E0EE0FFF1FAA95E1F7E354BE
S1135120FA4F808190E08F779070009709F0ECC07F
S113513084859585A685B78584369105A105B10535
S113514008F4E2C080849184A284B384811491041D
S1135150A104B10421F4D8C0882499245401C501C0
S1135160B40140E00E94FD24882309F4CDC080915D
S11351701A0490911B0422E08030920709F0C4C005
S113518030911F04332309F4BFC080911D04909112
S11351901E04009709F4B8C020911C04222309F4CA
S11351A0B3C03A8B2C831D8630E041E050E006C04A
S11351B0812F8F5F8D87183008F0A6C01D85CA0126
S11351C0012E02C0880F991F0A94E2F728173907A5
S11351D079F78091250490912604009719F0A0E0B6
S11351E0B0E008C08091330490913404A091350458
S11351F0B09136048D839E83AF83B887C0901D041D
S1135200D0901E04EE24FF24C80CD91CEA1CFB1CFD
S1135210CB8ADC8AED8AFE8A609020047090210497
S1135220798E688E20911F0430E040E050E0BC018C
S1135230CD010E94D539DC01CB018C0D9D1DAE1D25
S1135240BF1D8A8F9B8FAC8FBD8FA301E5E0440FF8
S1135250551FEA95E1F741505E4F452F5527469576
S113526060E070E0480F591F6A1F7B1F4E875F87FD
S1135270688B798B8091220490912304009719F014
S1135280A0E0B0E008C080912F0490913004A09178
S11352903104B0913204841A950AA60AB70A880E1A
S11352A0991EAA1EBB1E04C0B694A7949794879413
S11352B01A95D2F789869A86AB86BC8685EF8816BE
S11352C08FE0980680E0A80680E0B80610F48CE031
S11352D018C025EF82162FEF920620E0A20620E0E8
S11352E0B20610F480E10DC080913B0490913C041F
S11352F0A0913D04B0913E048A8F9B8FAC8FBD8FEB
S113530080E28F8B81E001C080E0DF91CF911F911B
S1135310FF90EF90DF90CF90BF90AF909F908F90D1
S11353207F906F9008958AE061E00E9437348AE0AC
S113533061E00E94F8338CB580618CBD8CB58064CB
S11353408CBD8DE061E00E94F8338BE061E00E9447
S1135350F833089580913F0690E020914006821B27
S1135360910908952091400680913F06281750F432
S1135370E22FF0E0EF5BF94F808190E02F5F209304
S1135380400608958FEF9FEF0895E09140068091C5
S11353903F06E81730F4F0E0EF5BF94F808190E0CE
S11353A008958FEF9FEF08950895CF92DF92EF92C3
S11353B0FF920F931F93CF93DF936C01CB018A016C
S11353C020911B062223A1F07B01C0E0D0E00CC099
S11353D0D7016D917D01D601ED91FC910190F08191
S11353E0E02DC60109952196C017D10789F703C09E
S11353F0642F0E94FA02C801DF91CF911F910F918F
S1135400FF90EF90DF90CF900895CF93DF930F92AA
S1135410CDB7DEB7698320911B062223D1F02091FA
S11354201C06203240F021E030E0FC01338322836B
S113543080E090E015C080911D06E82FF0E0E25E68
S1135440F94F998190838F5F80931D0680931C068A
S113545005C0CE01019661E00E94FA0281E090E06D
S11354600F90DF91CF9108951092400610923F065D
S113547010921D0610921C060E9425020895862F84
S1135480413208F040E261E476E00E944702109263
S1135490400680933F06089521E00E943F2A089524
S11354A081E080931B0660933E0610921D061092C5
S11354B01C0608950E94502A08950F93062F809188
S11354C03E066EE176E040911C0621E00E949502C2
S11354D010921D0610921C0610921B060F9108953F
S11354E061E00E945D2A089510921206109211063E
S11354F088EE93E0A0E0B0E0809313069093140646
S1135500A0931506B093160686E392E090931006D6
S113551080930F0608951F920F920FB60F921124D5
S1135520EF92FF920F931F932F933F934F935F93A9
S11355306F937F938F939F93AF93BF93EF93FF9357
S11355400E943433DC01CB014091740650917506FE
S113555060917606709177067C018D01E41AF50A54
S1135560060B170BA8019701293E03E0300700E062
S1135570400700E0500770F130937B0620937A06D1
S11355808093740690937506A0937606B09377067D
S113559060E071E585E292E00E941B3A309379065F
S11355A020937806809169068F5F809369068091C5
S11355B07C0690917D06A0917E06B0917F060196AF
S11355C0A11DB11D80937C0690937D06A0937E0659
S11355D0B0937F06FF91EF91BF91AF919F918F910F
S11355E07F916F915F914F913F912F911F910F91F7
S11355F0FF90EF900F900FBE0F901F9018951F9281
S11356000F920FB60F921124EF92FF920F931F93F4
S11356102F933F934F935F936F937F938F939F93B6
S1135620AF93BF93EF93FF930E943433DC01CB011C
S113563040918006509181066091820670918306A4
S11356407C018D01E41AF50A060B170BA8019701DA
S1135650253631054105510508F442C0F0926D0626
S1135660E0926C068093800690938106A093820654
S1135670B093830660E27AEA84E490E00E941B3AE5
S113568030936B0620936A06809168068F5F80933F
S1135690680680916E0690916F06019690936F064E
S11356A080936E0680916E0690916F068035910509
S11356B0BCF08091700690917106A0917206B09131
S11356C073060196A11DB11D809370069093710617
S11356D0A0937206B093730610926F0610926E0632
S11356E0FF91EF91BF91AF919F918F917F916F91B6
S11356F05F914F913F912F911F910F91FF90EF90E8
S11357000F900FBE0F901F901895CF93DF93EC016D
S113571067ED72E00E94493740917C0650917D0606
S113572060917E0670917F06CE012AE030E00E94EF
S11357301438CE0163EE72E00E944937CE0165EE63
S113574072E00E9449376091780670917906CE0123
S11357504AE050E00E948938CE0161EF72E00E9475
S11357604937CE0163EF72E00E94493740917006D9
S1135770509171066091720670917306CE012AE011
S113578030E00E941438CE016FEF72E00E94493776
S1135790CE0161E073E00E94493760916A0670911E
S11357A06B06CE014AE050E00E948938CE016DE0DC
S11357B073E00E944937CE016FE073E00E944937DD
S11357C06091660670916706CE014AE050E00E943F
S11357D08938CE0166E173E00E944937CE0168E161
S11357E073E00E94493760916506CE014AE050E0BB
S11357F00E943738CE016EE173E00E944937DF9191
S1135800CF9108951F920F920FB60F9211245F93B8
S11358106F937F938F939F93AF93BF93809163060E
S11358209091640601969093640680936306809138
S1135830630690916406853B91053CF010926406E2
S11358401092630681E08093A10180916306909198
S113585064066CE070E00E94083A009719F481E055
S1135860809361068091780690917906181619063E
S11358701CF481E080936206BF91AF919F918F9158
S11358807F916F915F910F900FBE0F901F901895AD
S1135890FF920F931F93CF93DF93EC0106E713E07E
S11358A0C801BE010E94790BF82EBE016F5F7F4FC5
S11358B0C8010E94790B682F8F2D0E94D238DF9186
S11358C0CF911F910F91FF900895CF92DF92EF92A5
S11358D0FF920F931F938C010E94482C6C01EE24BD
S11358E0FF247601DD24CC24C80102960E94482CB2
S11358F08C0120E030E00C291D292E293F29B80114
S1135900C9011F910F91FF90EF90DF90CF90089500
S1135910EF92FF920F931F93CF93DF93EC017B01E0
S113592006E713E0472F552747FD5A95C801BE01E6
S11359300E947D0BBE016F5F7F4FC8014E2D0E94F8
S11359407D0BDF91CF911F910F91FF90EF90089500
S1135950CF92DF92EF92FF92CF93DF93EC016A0133
S11359607B01CA010E94D138BC01CE0102960E947B
S1135970882CC7010E94D138BC01CE010E94882C1A
S1135980DF91CF91FF90EF90DF90CF9008958AB18F
S11359908AB98BB18BB9E9E6F0E080818F608083AE
S11359A0E89AE99A789410928000E1E8F0E080E1C6
S11359B080832FB7F89486E998E9909387008093C1
S11359C086002FBF81E080936F008081887F808371
S11359D080818560808380E090E00E94652CDC01FA
S11359E0CB0180937C0690937D06A0937E06B093B2
S11359F07F0684E090E00E94652CDC01CB0180935B
S1135A00700690937106A0937206B093730608957E
S1135A10EF92FF920F931F93CF93DF93CDB7DEB72F
S1135A206B970FB6F894DEBF0FBECDBF7C010E8B13
S1135A301F8B288F398F4A8F5B8FF7016083602F0C
S1135A4070E06053784FCE010F964AE00E946C39A3
S1135A50CE010F9662E070E00E94D938F70181838D
S1135A60CE010F9663E070E00E94D938F70182837B
S1135A70CE0108966F894AE00E949D398C859D85E8
S1135A808230910569F4CE01089660E070E00E94CE
S1135A90D938F7018383CE01089661E070E007C02E
S1135AA080E3F7018383CE01089660E070E00E94F2
S1135AB0D938F7018483CE010196688D4AE00E94AB
S1135AC09D398D819E818230910569F4CE010196C4
S1135AD060E070E00E94D938F7018583CE01019619
S1135AE061E070E007C080E3F7018583CE01019691
S1135AF060E070E00E94D938F70186838EE2F701F6
S1135B00878384E7808798E7918782871386CE010D
S1135B1001960E94CF39CE0108960E94CF39CE015A
S1135B200F960E94CF396B960FB6F894DEBF0FBE66
S1135B30CDBFDF91CF911F910F91FF90EF9008950A
S1135B40CF93DF93CDB7DEB72C970FB6F894DEBFB3
S1135B500FBECDBF0E94FE042F83388749875A8722
S1135B606B877C87DE011196FE01379686E00190F3
S1135B700D928150E1F78C81882309F082C08D81D8
S1135B80823008F07EC08B8190918406891709F4D5
S1135B9078C08093840686EB96E063ED76E045E278
S1135BA051E023E10E940A228091BB06882309F474
S1135BB068C04091C9065091CA066091CB067091A5
S1135BC0CC0686EB96E00E94E21F86EB96E060E24C
S1135BD073E00E94493740917C0650917D066091A4
S1135BE07E0670917F0686EB96E02AE030E00E9404
S1135BF0143886EB96E06FE271E00E94BB38CE0168
S1135C0001960E94C004AB01BC0186EB96E02AE039
S1135C1030E00E94143886EB96E062E371E00E9463
S1135C20BE3886EB96E06BE273E00E944937409100
S1135C30700650917106609172067091730686EB3E
S1135C4096E02AE030E00E94143886EB96E06FE29A
S1135C5071E00E94BB38CE0101960E94C004AB01E2
S1135C60BC0186EB96E02AE030E00E94143886EB13
S1135C7096E062E371E00E94BE3886EB96E00E94F3
S1135C80C1202C960FB6F894DEBF0FBECDBFDF91B6
S1135C90CF9108950F931F93CF93DF93CDB7DEB7C2
S1135CA068970FB6F894DEBF0FBECDBF8091C401D4
S1135CB0882309F49AC00E94FE042B8B3C8B4D8BE5
S1135CC05E8B6F8B788FDE011196FE01739686E0F2
S1135CD001900D928150E1F7CE0107966DE40981A0
S1135CE01A812B813C814D815E810E94082D86EBB7
